:1000000005308A00B82D0000FF00030E8301A10017
:100010000A08A0008A010408A2007708A300780853
:10002000A4007908A5007A08A60003170D08031399
:10003000A70003170F080313A80003170C080313E6
:10004000A90003170E080313AA00831383128C3030
:100050008400001C2D280C184E2822088400230838
:10006000F7002408F8002508F9002608FA002708F8
:1000700003178D000313280803178F0003132908A3
:1000800003178C0003132A0803178E00031320089C
:100090008A00210E8300FF0E7F0E09008A110A12CA
:1000A00051288E01EC308F0078308E000000B30AAA
:1000B0000319B40A0C108A110A122D28482CB718FB
:1000C0003110D331613665008C2BE5346734741DF3
:1000D00000014E3084008313000803197C28063089
:1000E000F800F701F70B7228F80B71287B30F70046
:1000F000F70B7828800B6F280800550EF039F700B1
:100100000F30080577048800000008140330F7005A
:10011000F70B8828081008000808F700080E0F39A8
:10012000F800080083160810881008118312881040
:100130000F3083160805F038880083120815000078
:10014000081400008C207808D5000810000008145E
:10015000A928AA2800008C207808D40008100F30A5
:100160008316080588008312550EF700F030F70556
:1001700077085404F8007808D400D41B9828521C3F
:100180008810521888140000081100000810530E3F
:10019000D4000F30D4055408D5007D2053080F3902
:1001A000D400D5007D2008002830C1000C30C200EA
:1001B0000130C3000630C4000810881008110F3049
:1001C0008316080588000810881008110F30831264
:1001D000CE0069200130C0004008033C031CF82811
:1001E0000330D5007D200530CE006920C00AEC2800
:1001F0000230D5007D200530CE006920C0014008C6
:10020000033C031C0F29413040078400831300087E
:10021000C500D2014508D3009220C00AFF288A11E8
:100220000A12EC2D4F0B152918294030D00019293E
:10023000D00101304E02D00750088038D100D201E1
:100240005108D300922008004D08073A03193229BB
:100250000B3A03193729063A03193F29023A0319C1
:1002600045294A290130CE00CF0012214F29D20161
:100270000130D30092200230CE0069204F29013096
:10028000CE000230CF0012214F29D2011030D3000E
:1002900092204F290130D2004D08D300922008004F
:1002A0000B08C0008B13831603178C170C14000067
:1002B000000083120313C01B8B1703170C087F3930
:1002C0000319A4290313C00003170D080313C10069
:1002D00003170F080313C2004008CD002421410872
:1002E00003178D000313420803178F0003130B0835
:1002F000C3008B13831603178C170C140000000027
:1003000083120313C31B8B1703170C0D0E0D7F39BC
:100310000319A4290313C00003170D080313C10018
:1003200003170F080313C2004008CD002421410821
:1003300003178D000313420803178F008D0A03195A
:100340008F0A031350290317031308008318AB29DE
:10035000553084008313F701F801F901FA01D50142
:10036000D601D701D801540853045204510403198B
:10037000E9292030D9000310CD0DCE0DCF0DD00DC1
:10038000D50DD60DD70DD80D54085802031DD2290E
:1003900053085702031DD22952085602031DD229C1
:1003A00051085502031CE3295108D5025208031CC9
:1003B000520FD6025308031C530FD7025408031CD4
:1003C000540FD8020314F70DF80DF90DFA0DD90BDF
:1003D000BB2955088000840A56088000840A570803
:1003E0008000840A580880000800C301C201C101CE
:1003F000C001C4014408023C031C622AC801C701B1
:10040000C601C5010714351035088316870083120D
:100410008710B51035088316870083123514350808
:1004200083168700831207180E2AC9014908173C52
:10043000031C3C2A8714B510350883168700031067
:100440008312C50DC60DC70DC80D8710B510350830
:1004500083168700831235143508831687008312AC
:10046000071C3A2A0130C5070318C60A0319C70A30
:100470000319C80AC90A162A8714B5103508831645
:10048000870080308312C7068710B51035088316A1
:10049000870083124508F7004608F8004708F9006E
:1004A0004808FA007708C00778080318780FC107D2
:1004B00079080318790FC2077A0803187A0FC3075F
:1004C000C40AFA2983104308D0004208CF0041082B
:1004D000CE004008CD00D401D301D2010330D100B9
:1004E000A6210800B630F700FA01F901F80140082A
:1004F000410442044304031D7F2AF7018C2A0310A0
:10050000F81B8B2AC00DC10DC20DC30DFA0DF90DDC
:10051000F80DF70B7F2AF813080044080319522B33
:10052000D00048080319522BD002031C9C2A7F30AC
:10053000D0070318522BA22A8130D002031C522B61
:100540000319522B5008F700F801F901FA01CF0105
:100550004508CE00CE174608CD004708CC0019301C
:10056000D0004B08CC020318C52A0130CD02031875
:10057000C52ACE020318C52ACF020318C52ACF0AFE
:10058000CE0ACD0A4B08CC07F72A4A08CD02031839
:10059000E02A0130CE020318E02ACF020318E02A35
:1005A000CF0ACE0A4A08CD074B08CC07031CF72A0E
:1005B000CD0A031DF72ACE0A031DF72ACF0AF72A10
:1005C00049088038CE020318F62A0130CF020318FA
:1005D000F62ACF0A49088038CE074A08CD07031CFF
:1005E000D42ACE0A031DD42ACF0AD42A7A14D00BD7
:1005F000FA2A052B0310CC0DCD0DCE0DCF0D031017
:10060000FA0DF90DF80DD10DB12A511C0D2B031067
:10061000F80CF90CFA0CD10C102BF7030319522B20
:10062000D11B392B0310CC0DCD0DCE0DCF0D4B08AA
:10063000CC020318252B0130CD020318252BCE0246
:100640000318252BCF02031C482B4A08CD020318A0
:10065000302B0130CE020318302BCF02031C482B65
:1006600049088038CE020318392B0130CF02031C11
:10067000482BFA0A031D482BF90A031D482BF80AD8
:10068000031D482BF70A0319522BF80CF90CFA0C2E
:100690004508D0004908D006D01F502BF817562B1C
:1006A000F813562BF701F801F901FA010800410887
:1006B000C8004508C806C81F622B03110310C11BE0
:1006C0000314952B4108C8004408C9004008C9021A
:1006D0000319702BC81F952B0308013A8300952B33
:1006E0004508C9004108C90203197C2BC81F952B76
:1006F0000308013A8300952B4608C9004208C90245
:100700000319882BC81F952B0308013A8300952BEA
:100710004708C9004308C9020319942BC81F952B29
:100720000308013A8300952B031008004D080319B4
:10073000062CD50051080319062CD5070318A72B42
:100740007F30D502031C062C0319062CAB2B8130FD
:10075000D5070318062C5508F700F801F901FA012E
:100760004E08D900D9174F08D8005008D7001830C4
:10077000D500D601571CD42B5408FA07031CC62BEE
:10078000F90A031DC62BF80A0319D6175308F907EF
:10079000031CCD2BF80A0319D6175208CF00CF1728
:1007A0004F08F8070318D617D60DF80CF90CFA0CF9
:1007B000D90CD80CD70C0310D50BB92B0130F70787
:1007C0000318062CF81BEB2BD90DFA0DF90DF80DBB
:1007D000F7030319062CD91FFC2BFA0A031DFC2B67
:1007E000F90A031DFC2BF80A031DFC2BF80CF90C6D
:1007F000FA0CF70A0319062C4E08D6005208D60642
:10080000D61F042CF8170A2CF8130A2CF701F8014C
:10081000F901FA0108004D08B63CCD00FA014E0876
:10082000D100CE170310CE0CCF0CD00CFA0CF90C63
:10083000F80CF70CCD0B122CD11F292CF709F80955
:10084000F909FA09F70A0319F80A0319F90A031949
:10085000FA0A08000408C5004408C7000319492C17
:100860004308D0004208CF004108CE004008CD0028
:10087000D401D3012030D2008230D10096237A08EF
:10088000C3007908C2007808C1007708C000C70B10
:10089000302C4308D0004208CF004108CE00400869
:1008A000CD000B247A08C3007908C2007808C10083
:1008B0007708C000C31F692CC503C516C009C1094C
:1008C000C209C309C00A0319C10A0319C20A0319DC
:1008D000C30A3B30CC009A30CB00CA30CA00C901F1
:1008E0000A30C70044080319C50A83144030840045
:1008F00083134308D0004208CF004108CE004008CF
:10090000CD004C08D4004B08D3004A08D200490857
:10091000D100A6217808F708031DA12C440A47023C
:100920000319A12C45080319A32C0F3947020319F9
:100930009B2C0318D32CC51BD32C451BA32C203078
:10094000CF2C2030C505C51EB12CC5124408031D8F
:10095000C5037708C5002D30CD0024214508F700D8
:10096000C50144084702031DBF2C7708C5002E307F
:10097000CD0024214508F7002030C5050030303077
:10098000C51ECF2CC5124408031DC5037708C5003A
:100990002D30CD0024214508F700C5013030F70780
:1009A0007708CD00242183104C08D0004B08CF00DD
:1009B0004A08CE004908CD00D401D301D2010A3043
:1009C000D100A6217A08CC007908CB007808CA00AB
:1009D0007708C900C70B752C8A110A12F62E040875
:1009E000C5004408C70003190E2D4308D000420873
:1009F000CF004108CE004008CD00D401D301203003
:100A0000D2008230D10096237A08C3007908C20050
:100A10007808C1007708C000C70BF52C4308D00048
:100A20004208CF004108CE004008CD000B247A08D0
:100A3000C3007908C2007808C1007708C000C31F4E
:100A40002E2DC503C516C009C109C209C309C00AB4
:100A50000319C10A0319C20A0319C30A3B30CC00A7
:100A60009A30CB00CA30CA00C9010A30C700440816
:100A70000319C50A83144030840083134308D0004F
:100A80004208CF004108CE004008CD004C08D400F9
:100A90004B08D3004A08D2004908D100A6217808A3
:100AA000F708031D662D440A47020319662D450801
:100AB0000319682D0F3947020319602D03189C2D67
:100AC000C51B9C2D451B682D2030972D2030C5055A
:100AD000C51E772DC5124408031DC5037708C50040
:100AE0002D300C1E712D99004508F700C5014408F2
:100AF0004702031D862D7708C5002E300C1E7E2D63
:100B000099004508F7002030C50500303030C51E7B
:100B1000972DC5124408031DC5037708C5002D3065
:100B20000C1E902D99004508F700C5013030F707DD
:100B300077080C1E992D990083104C08D0004B08A3
:100B4000CF004A08CE004908CD00D401D301D2011C
:100B50000A30D100A6217A08CC007908CB007808A9
:100B6000CA007708C900C70B3A2D8A110A12092F4B
:100B700003081F39830083160317871508300313F2
:100B8000990002309A00A6309800903083129800A5
:100B9000E130AE005A30AD006630AC008830AB00BA
:100BA000B201B101B001AF01B401B301FF30B50032
:100BB000B701B601831603170908C039890003136A
:100BC0001F129F12003003178800831287018801CB
:100BD000890183130313D4285E3003178D0000307E
:100BE0008F00031350210230C000FA30CE0069207C
:100BF000C00BF52D153090008E01EC308F00783051
:100C00008E00000083160C14C03083128B04F52173
:100C10007A08BB007908BA007808B9007708B800EC
:100C2000B408031D172E3308133C0318142FB40106
:100C3000B301F5217A08BF007908BE007808BD002D
:100C40007708BC003F083B02031C8C2E031D382E86
:100C50003E083A02031C8C2E031D382E3D08390233
:100C6000031C8C2E031D382E3C083802031C8C2ECE
:100C70003C083802F7003908F8003D08031C3D0F16
:100C8000F8023A08F9003E08031C3E0FF9023B083F
:100C9000FA003F08031C3F0FFA027A08C3007908E4
:100CA000C2007808C1007708C00072227A08C30029
:100CB0007908C2007808C1007708C0007A08C70028
:100CC0007908C6007808C5007708C4002E08CB0054
:100CD0002D08CA002C08C9002B08C8008D227A08EC
:100CE000B2007908B1007808B0007708AF00320888
:100CF000C3003108C2003008C1002F08C000C7017E
:100D0000C601C5017F30C4005723031C8B2EB201DE
:100D1000B101B001AF01DF2E38083C02F7003D08F9
:100D2000F8003908031C390FF8023E08F9003A08A8
:100D3000031C3A0FF9023F08FA003B08031C3B0F63
:100D4000FA027A08C3007908C2007808C10077085F
:100D5000C00072227A08C3007908C2007808C10076
:100D60007708C0007A08C7007908C6007808C5006F
:100D70007708C4002E08CB002D08CA002C08C90033
:100D80002B08C8008D227A08B2007908B1007808D3
:100D9000B0007708AF003208C3003108C200300845
:100DA000C1002F08C000C701C601C5017F30C400C3
:100DB0005723031CDF2EB201B101B001AF01643033
:100DC00003178D0000308F00031350210A30CD002F
:100DD0002421893084003208C3003108C200300861
:100DE000C1002F08C0000230C4002A2C2030CD00E2
:100DF00024216730CD002421893084003208C300CB
:100E00003108C2003008C1002F08C0000230C40001
:100E1000EF2C0D300C1E0A2F99000A300C1E0E2FDD
:0C0E200099000530CE006920102E630000
:04400E00F22CFF3F52
:00000001FF
;PIC16F887
;CRC=8A9A  CREATED="29-Mar-25 15:23"
